{
  "contractName": "BlindAuction",
  "abi": [
    {
      "inputs": [],
      "stateMutability": "nonpayable",
      "type": "constructor"
    },
    {
      "anonymous": false,
      "inputs": [],
      "name": "AuctionDone",
      "type": "event"
    },
    {
      "anonymous": false,
      "inputs": [
        {
          "indexed": false,
          "internalType": "address",
          "name": "winner",
          "type": "address"
        },
        {
          "indexed": false,
          "internalType": "uint256",
          "name": "highestBid",
          "type": "uint256"
        }
      ],
      "name": "AuctionEnded",
      "type": "event"
    },
    {
      "anonymous": false,
      "inputs": [],
      "name": "AuctionInit",
      "type": "event"
    },
    {
      "anonymous": false,
      "inputs": [],
      "name": "BiddingStarted",
      "type": "event"
    },
    {
      "anonymous": false,
      "inputs": [
        {
          "indexed": false,
          "internalType": "string",
          "name": "message",
          "type": "string"
        },
        {
          "indexed": true,
          "internalType": "address",
          "name": "caller",
          "type": "address"
        },
        {
          "indexed": false,
          "internalType": "uint256",
          "name": "depositBefore",
          "type": "uint256"
        },
        {
          "indexed": false,
          "internalType": "uint256",
          "name": "depositAfter",
          "type": "uint256"
        },
        {
          "indexed": false,
          "internalType": "uint256",
          "name": "valueInWei",
          "type": "uint256"
        },
        {
          "indexed": false,
          "internalType": "bool",
          "name": "isValid",
          "type": "bool"
        },
        {
          "indexed": false,
          "internalType": "uint256",
          "name": "difference",
          "type": "uint256"
        },
        {
          "indexed": false,
          "internalType": "bool",
          "name": "success",
          "type": "bool"
        }
      ],
      "name": "DebugLog",
      "type": "event"
    },
    {
      "anonymous": false,
      "inputs": [],
      "name": "RevealStarted",
      "type": "event"
    },
    {
      "inputs": [],
      "name": "beneficiary",
      "outputs": [
        {
          "internalType": "address payable",
          "name": "",
          "type": "address"
        }
      ],
      "stateMutability": "view",
      "type": "function",
      "constant": true
    },
    {
      "inputs": [
        {
          "internalType": "address",
          "name": "",
          "type": "address"
        }
      ],
      "name": "bids",
      "outputs": [
        {
          "internalType": "bytes32",
          "name": "blindedBid",
          "type": "bytes32"
        },
        {
          "internalType": "uint256",
          "name": "deposit",
          "type": "uint256"
        },
        {
          "internalType": "bool",
          "name": "revealed",
          "type": "bool"
        }
      ],
      "stateMutability": "view",
      "type": "function",
      "constant": true
    },
    {
      "inputs": [],
      "name": "currentPhase",
      "outputs": [
        {
          "internalType": "enum BlindAuction.Phase",
          "name": "",
          "type": "uint8"
        }
      ],
      "stateMutability": "view",
      "type": "function",
      "constant": true
    },
    {
      "inputs": [],
      "name": "highestBid",
      "outputs": [
        {
          "internalType": "uint256",
          "name": "",
          "type": "uint256"
        }
      ],
      "stateMutability": "view",
      "type": "function",
      "constant": true
    },
    {
      "inputs": [],
      "name": "highestBidder",
      "outputs": [
        {
          "internalType": "address",
          "name": "",
          "type": "address"
        }
      ],
      "stateMutability": "view",
      "type": "function",
      "constant": true
    },
    {
      "inputs": [
        {
          "internalType": "address",
          "name": "",
          "type": "address"
        }
      ],
      "name": "pendingReturns",
      "outputs": [
        {
          "internalType": "uint256",
          "name": "",
          "type": "uint256"
        }
      ],
      "stateMutability": "view",
      "type": "function",
      "constant": true
    },
    {
      "inputs": [],
      "name": "advancePhase",
      "outputs": [],
      "stateMutability": "nonpayable",
      "type": "function"
    },
    {
      "inputs": [
        {
          "internalType": "bytes32",
          "name": "blindBid",
          "type": "bytes32"
        }
      ],
      "name": "bid",
      "outputs": [],
      "stateMutability": "payable",
      "type": "function",
      "payable": true
    },
    {
      "inputs": [
        {
          "internalType": "uint256",
          "name": "value",
          "type": "uint256"
        },
        {
          "internalType": "bytes32",
          "name": "secret",
          "type": "bytes32"
        }
      ],
      "name": "reveal",
      "outputs": [],
      "stateMutability": "nonpayable",
      "type": "function"
    },
    {
      "inputs": [],
      "name": "withdraw",
      "outputs": [],
      "stateMutability": "nonpayable",
      "type": "function"
    },
    {
      "inputs": [],
      "name": "auctionEnd",
      "outputs": [],
      "stateMutability": "nonpayable",
      "type": "function"
    }
  ],
  "bytecode": "0x608060405260006002556000600560006101000a81548160ff0219169083600381111561002f5761002e6100dd565b5b021790555034801561004057600080fd5b50336000806101000a81548173ffffffffffffffffffffffffffffffffffffffff021916908373ffffffffffffffffffffffffffffffffffffffff1602179055506000600560006101000a81548160ff021916908360038111156100a7576100a66100dd565b5b02179055507f8ad2842071cb64589c8e006941bc20b615aae08a93530e211ca7c9639bd26d9760405160405180910390a161010c565b7f4e487b7100000000000000000000000000000000000000000000000000000000600052602160045260246000fd5b611bd6806200011c6000396000f3fe60806040526004361061009c5760003560e01c80634036778f116100645780634036778f1461016257806362ea82db1461018b57806391f90157146101ca578063957bb1e0146101f5578063be25a71814610211578063d57bde79146102285761009c565b8063055ad42e146100a157806326b387bb146100cc5780632a24f46c1461010957806338af3eed146101205780633ccfd60b1461014b575b600080fd5b3480156100ad57600080fd5b506100b6610253565b6040516100c39190611122565b60405180910390f35b3480156100d857600080fd5b506100f360048036038101906100ee91906111a0565b610266565b60405161010091906111e6565b60405180910390f35b34801561011557600080fd5b5061011e61027e565b005b34801561012c57600080fd5b5061013561044c565b6040516101429190611222565b60405180910390f35b34801561015757600080fd5b50610160610470565b005b34801561016e57600080fd5b506101896004803603810190610184919061129f565b610586565b005b34801561019757600080fd5b506101b260048036038101906101ad91906111a0565b610a7a565b6040516101c193929190611309565b60405180910390f35b3480156101d657600080fd5b506101df610ab1565b6040516101ec919061134f565b60405180910390f35b61020f600480360381019061020a919061136a565b610ad7565b005b34801561021d57600080fd5b50610226610cb0565b005b34801561023457600080fd5b5061023d6110a5565b60405161024a91906111e6565b60405180910390f35b600560009054906101000a900460ff1681565b60046020528060005260406000206000915090505481565b600380811115610291576102906110ab565b5b600560009054906101000a900460ff1660038111156102b3576102b26110ab565b5b146102f3576040517f08c379a00000000000000000000000000000000000000000000000000000000081526004016102ea906113f4565b60405180910390fd5b600073ffffffffffffffffffffffffffffffffffffffff16600160009054906101000a900473ffffffffffffffffffffffffffffffffffffffff1673ffffffffffffffffffffffffffffffffffffffff1603610384576040517f08c379a000000000000000000000000000000000000000000000000000000000815260040161037b90611460565b60405180910390fd5b60008054906101000a900473ffffffffffffffffffffffffffffffffffffffff1673ffffffffffffffffffffffffffffffffffffffff166108fc6002549081150290604051600060405180830381858888f193505050501580156103ec573d6000803e3d6000fd5b507fdaec4582d5d9595688c8c98545fdd1c696d41c6aeaeb636737e84ed2f5c00eda600160009054906101000a900473ffffffffffffffffffffffffffffffffffffffff16600254604051610442929190611480565b60405180910390a1565b60008054906101000a900473ffffffffffffffffffffffffffffffffffffffff1681565b6000600460003373ffffffffffffffffffffffffffffffffffffffff1673ffffffffffffffffffffffffffffffffffffffff168152602001908152602001600020549050600081116104f7576040517f08c379a00000000000000000000000000000000000000000000000000000000081526004016104ee906114f5565b60405180910390fd5b6000600460003373ffffffffffffffffffffffffffffffffffffffff1673ffffffffffffffffffffffffffffffffffffffff168152602001908152602001600020819055503373ffffffffffffffffffffffffffffffffffffffff166108fc829081150290604051600060405180830381858888f19350505050158015610582573d6000803e3d6000fd5b5050565b600280600381111561059b5761059a6110ab565b5b600560009054906101000a900460ff1660038111156105bd576105bc6110ab565b5b146105fd576040517f08c379a00000000000000000000000000000000000000000000000000000000081526004016105f490611587565b60405180910390fd5b6000600360003373ffffffffffffffffffffffffffffffffffffffff1673ffffffffffffffffffffffffffffffffffffffff16815260200190815260200160002090506000816001015490506000801b826000015403610692576040517f08c379a0000000000000000000000000000000000000000000000000000000008152600401610689906115f3565b60405180910390fd5b8160020160009054906101000a900460ff16156106e4576040517f08c379a00000000000000000000000000000000000000000000000000000000081526004016106db9061165f565b60405180910390fd5b6000670de0b6b3a7640000866106fa91906116ae565b90506000808287604051602001610712929190611732565b6040516020818303038152906040528051906020012085600001540361096e578285600101541015610779576040517f08c379a0000000000000000000000000000000000000000000000000000000008152600401610770906117d0565b60405180910390fd5b82856001015461078991906117f0565b91506002548311156108b357600073ffffffffffffffffffffffffffffffffffffffff16600160009054906101000a900473ffffffffffffffffffffffffffffffffffffffff1673ffffffffffffffffffffffffffffffffffffffff16146108665760025460046000600160009054906101000a900473ffffffffffffffffffffffffffffffffffffffff1673ffffffffffffffffffffffffffffffffffffffff1673ffffffffffffffffffffffffffffffffffffffff168152602001908152602001600020600082825461085e9190611824565b925050819055505b33600160006101000a81548173ffffffffffffffffffffffffffffffffffffffff021916908373ffffffffffffffffffffffffffffffffffffffff1602179055508260028190555061090a565b82600460003373ffffffffffffffffffffffffffffffffffffffff1673ffffffffffffffffffffffffffffffffffffffff16815260200190815260200160002060008282546109029190611824565b925050819055505b600082111561095b573373ffffffffffffffffffffffffffffffffffffffff166108fc839081150290604051600060405180830381858888f19350505050158015610959573d6000803e3d6000fd5b505b60008560010181905550600190506109c9565b8460010154600460003373ffffffffffffffffffffffffffffffffffffffff1673ffffffffffffffffffffffffffffffffffffffff16815260200190815260200160002060008282546109c19190611824565b925050819055505b60018560020160006101000a81548160ff0219169083151502179055503373ffffffffffffffffffffffffffffffffffffffff167f337f0e3a771eb8f2d413ab4c9a2f45e845b88019e4c10cfa870b434b4ff69ebc85876001015486878c604051602001610a38929190611732565b604051602081830303815290604052805190602001208a60000154148787604051610a68969594939291906118a4565b60405180910390a25050505050505050565b60036020528060005260406000206000915090508060000154908060010154908060020160009054906101000a900460ff16905083565b600160009054906101000a900473ffffffffffffffffffffffffffffffffffffffff1681565b6001806003811115610aec57610aeb6110ab565b5b600560009054906101000a900460ff166003811115610b0e57610b0d6110ab565b5b14610b4e576040517f08c379a0000000000000000000000000000000000000000000000000000000008152600401610b4590611587565b60405180910390fd5b6000801b600360003373ffffffffffffffffffffffffffffffffffffffff1673ffffffffffffffffffffffffffffffffffffffff1681526020019081526020016000206000015414610bd5576040517f08c379a0000000000000000000000000000000000000000000000000000000008152600401610bcc90611964565b60405180910390fd5b60003411610c18576040517f08c379a0000000000000000000000000000000000000000000000000000000008152600401610c0f906119d0565b60405180910390fd5b604051806060016040528083815260200134815260200160001515815250600360003373ffffffffffffffffffffffffffffffffffffffff1673ffffffffffffffffffffffffffffffffffffffff168152602001908152602001600020600082015181600001556020820151816001015560408201518160020160006101000a81548160ff0219169083151502179055509050505050565b60008054906101000a900473ffffffffffffffffffffffffffffffffffffffff1673ffffffffffffffffffffffffffffffffffffffff163373ffffffffffffffffffffffffffffffffffffffff1614610d3e576040517f08c379a0000000000000000000000000000000000000000000000000000000008152600401610d3590611a3c565b60405180910390fd5b600380811115610d5157610d506110ab565b5b600560009054906101000a900460ff166003811115610d7357610d726110ab565b5b03610db3576040517f08c379a0000000000000000000000000000000000000000000000000000000008152600401610daa90611aa8565b60405180910390fd5b60006003811115610dc757610dc66110ab565b5b600560009054906101000a900460ff166003811115610de957610de86110ab565b5b03610e4a576001600560006101000a81548160ff02191690836003811115610e1457610e136110ab565b5b02179055507f02c124e22ee7da1c9905bbb317cf67658c1cc3ea1c0953b1633f85d0b5c281d960405160405180910390a16110a3565b60016003811115610e5e57610e5d6110ab565b5b600560009054906101000a900460ff166003811115610e8057610e7f6110ab565b5b03610ee1576002600560006101000a81548160ff02191690836003811115610eab57610eaa6110ab565b5b02179055507f3bcc93d35219aa0512d7c0d1ca10b0231f473e3d5f9396877d1b7215ee0ab3d560405160405180910390a16110a2565b60026003811115610ef557610ef46110ab565b5b600560009054906101000a900460ff166003811115610f1757610f166110ab565b5b0361106657600073ffffffffffffffffffffffffffffffffffffffff16600160009054906101000a900473ffffffffffffffffffffffffffffffffffffffff1673ffffffffffffffffffffffffffffffffffffffff1603610fad576040517f08c379a0000000000000000000000000000000000000000000000000000000008152600401610fa490611b14565b60405180910390fd5b6003600560006101000a81548160ff02191690836003811115610fd357610fd26110ab565b5b02179055507fb6ab20c3fcd3b8e8f2a99b872d1ef0c670576ebce084e55c73b3479efacfd41f60405160405180910390a17fdaec4582d5d9595688c8c98545fdd1c696d41c6aeaeb636737e84ed2f5c00eda600160009054906101000a900473ffffffffffffffffffffffffffffffffffffffff16600254604051611059929190611480565b60405180910390a16110a1565b6040517f08c379a000000000000000000000000000000000000000000000000000000000815260040161109890611b80565b60405180910390fd5b5b5b565b60025481565b7f4e487b7100000000000000000000000000000000000000000000000000000000600052602160045260246000fd5b600481106110eb576110ea6110ab565b5b50565b60008190506110fc826110da565b919050565b600061110c826110ee565b9050919050565b61111c81611101565b82525050565b60006020820190506111376000830184611113565b92915050565b600080fd5b600073ffffffffffffffffffffffffffffffffffffffff82169050919050565b600061116d82611142565b9050919050565b61117d81611162565b811461118857600080fd5b50565b60008135905061119a81611174565b92915050565b6000602082840312156111b6576111b561113d565b5b60006111c48482850161118b565b91505092915050565b6000819050919050565b6111e0816111cd565b82525050565b60006020820190506111fb60008301846111d7565b92915050565b600061120c82611142565b9050919050565b61121c81611201565b82525050565b60006020820190506112376000830184611213565b92915050565b611246816111cd565b811461125157600080fd5b50565b6000813590506112638161123d565b92915050565b6000819050919050565b61127c81611269565b811461128757600080fd5b50565b60008135905061129981611273565b92915050565b600080604083850312156112b6576112b561113d565b5b60006112c485828601611254565b92505060206112d58582860161128a565b9150509250929050565b6112e881611269565b82525050565b60008115159050919050565b611303816112ee565b82525050565b600060608201905061131e60008301866112df565b61132b60208301856111d7565b61133860408301846112fa565b949350505050565b61134981611162565b82525050565b60006020820190506113646000830184611340565b92915050565b6000602082840312156113805761137f61113d565b5b600061138e8482850161128a565b91505092915050565b600082825260208201905092915050565b7f41756374696f6e206e6f742079657420646f6e652e0000000000000000000000600082015250565b60006113de601583611397565b91506113e9826113a8565b602082019050919050565b6000602082019050818103600083015261140d816113d1565b9050919050565b7f4e6f20626964732072657665616c65642e000000000000000000000000000000600082015250565b600061144a601183611397565b915061145582611414565b602082019050919050565b600060208201905081810360008301526114798161143d565b9050919050565b60006040820190506114956000830185611340565b6114a260208301846111d7565b9392505050565b7f4e6f2066756e647320746f2077697468647261772e0000000000000000000000600082015250565b60006114df601583611397565b91506114ea826114a9565b602082019050919050565b6000602082019050818103600083015261150e816114d2565b9050919050565b7f46756e6374696f6e2063616e6e6f742062652063616c6c65642061742074686960008201527f732074696d652e00000000000000000000000000000000000000000000000000602082015250565b6000611571602783611397565b915061157c82611515565b604082019050919050565b600060208201905081810360008301526115a081611564565b9050919050565b7f4e6f2062696420746f2072657665616c2e000000000000000000000000000000600082015250565b60006115dd601183611397565b91506115e8826115a7565b602082019050919050565b6000602082019050818103600083015261160c816115d0565b9050919050565b7f416c72656164792072657665616c65642e000000000000000000000000000000600082015250565b6000611649601183611397565b915061165482611613565b602082019050919050565b600060208201905081810360008301526116788161163c565b9050919050565b7f4e487b7100000000000000000000000000000000000000000000000000000000600052601160045260246000fd5b60006116b9826111cd565b91506116c4836111cd565b92508282026116d2816111cd565b915082820484148315176116e9576116e861167f565b5b5092915050565b6000819050919050565b61170b611706826111cd565b6116f0565b82525050565b6000819050919050565b61172c61172782611269565b611711565b82525050565b600061173e82856116fa565b60208201915061174e828461171b565b6020820191508190509392505050565b7f496e73756666696369656e74206465706f73697420666f72207468652076616c60008201527f75652e0000000000000000000000000000000000000000000000000000000000602082015250565b60006117ba602383611397565b91506117c58261175e565b604082019050919050565b600060208201905081810360008301526117e9816117ad565b9050919050565b60006117fb826111cd565b9150611806836111cd565b925082820390508181111561181e5761181d61167f565b5b92915050565b600061182f826111cd565b915061183a836111cd565b92508282019050808211156118525761185161167f565b5b92915050565b7f52657665616c20726573756c7400000000000000000000000000000000000000600082015250565b600061188e600d83611397565b915061189982611858565b602082019050919050565b600060e08201905081810360008301526118bd81611881565b90506118cc60208301896111d7565b6118d960408301886111d7565b6118e660608301876111d7565b6118f360808301866112fa565b61190060a08301856111d7565b61190d60c08301846112fa565b979650505050505050565b7f416c7265616479206269642e0000000000000000000000000000000000000000600082015250565b600061194e600c83611397565b915061195982611918565b602082019050919050565b6000602082019050818103600083015261197d81611941565b9050919050565b7f4465706f736974206d7573742062652067726561746572207468616e20302e00600082015250565b60006119ba601f83611397565b91506119c582611984565b602082019050919050565b600060208201905081810360008301526119e9816119ad565b9050919050565b7f4f6e6c792062656e65666963696172792063616e2063616c6c20746869732e00600082015250565b6000611a26601f83611397565b9150611a31826119f0565b602082019050919050565b60006020820190508181036000830152611a5581611a19565b9050919050565b7f41756374696f6e20616c726561647920656e6465642e00000000000000000000600082015250565b6000611a92601683611397565b9150611a9d82611a5c565b602082019050919050565b60006020820190508181036000830152611ac181611a85565b9050919050565b7f4e6f2076616c6964206269647320776572652072657665616c65642e00000000600082015250565b6000611afe601c83611397565b9150611b0982611ac8565b602082019050919050565b60006020820190508181036000830152611b2d81611af1565b9050919050565b7f496e76616c6964207068617365207472616e736974696f6e2e00000000000000600082015250565b6000611b6a601983611397565b9150611b7582611b34565b602082019050919050565b60006020820190508181036000830152611b9981611b5d565b905091905056fea264697066735822122091c23f0929fe7cc889d15283598c761046ee0ec26eabca22a8a2ad39846e267764736f6c63430008130033",
  "immutableReferences": {},
  "source": "// SPDX-License-Identifier: GPL-3.0\r\npragma solidity >=0.7.0 <0.9.0;\r\n\r\ncontract BlindAuction {\r\n    struct Bid {\r\n        bytes32 blindedBid; //      \r\n        uint deposit; //   \r\n        bool revealed; //   \r\n    }\r\n\r\n    enum Phase {Init, Bidding, Reveal, Done} //   (, , , )\r\n\r\n    address payable public beneficiary; //  (  )\r\n    address public highestBidder; //   \r\n    uint public highestBid = 0; //    \r\n\r\n    mapping(address => Bid) public bids; //    \r\n    mapping(address => uint) public pendingReturns; //      \r\n\r\n    Phase public currentPhase = Phase.Init; //    ( Init)\r\n\r\n    //  \r\n    event AuctionInit(); //   \r\n    event BiddingStarted(); //    \r\n    event RevealStarted(); //    \r\n    event AuctionDone(); //   \r\n    event AuctionEnded(address winner, uint highestBid); //    (   )\r\n    event DebugLog( //   \r\n        string message, // \r\n        address indexed caller, //  \r\n        uint depositBefore, //    \r\n        uint depositAfter, //    \r\n        uint valueInWei, //   (Wei )\r\n        bool isValid, //    \r\n        uint difference, //   \r\n        bool success //  \r\n    );\r\n\r\n    //    \r\n    modifier onlyBeneficiary() {\r\n        require(msg.sender == beneficiary, \"Only beneficiary can call this.\"); //   \r\n        _;\r\n    }\r\n\r\n    //     \r\n    modifier atPhase(Phase _phase) {\r\n        require(currentPhase == _phase, \"Function cannot be called at this time.\"); //    \r\n        _;\r\n    }\r\n\r\n    constructor() {\r\n        beneficiary = payable(msg.sender); //    \r\n        currentPhase = Phase.Init; //  \r\n        emit AuctionInit(); //    \r\n    }\r\n\r\n    function advancePhase() public onlyBeneficiary {\r\n        require(currentPhase != Phase.Done, \"Auction already ended.\"); //    \r\n\r\n        if (currentPhase == Phase.Init) {\r\n            currentPhase = Phase.Bidding; //   \r\n            emit BiddingStarted(); //    \r\n        } else if (currentPhase == Phase.Bidding) {\r\n            currentPhase = Phase.Reveal; //   \r\n            emit RevealStarted(); //    \r\n        } else if (currentPhase == Phase.Reveal) {\r\n            if (highestBidder == address(0)) {\r\n                revert(\"No valid bids were revealed.\"); //     \r\n            }\r\n            currentPhase = Phase.Done; //   \r\n            emit AuctionDone(); //    \r\n            emit AuctionEnded(highestBidder, highestBid); //    \r\n        } else {\r\n            revert(\"Invalid phase transition.\"); //      \r\n        }\r\n    }\r\n\r\n    function bid(bytes32 blindBid) public payable atPhase(Phase.Bidding) {\r\n        require(bids[msg.sender].blindedBid == 0, \"Already bid.\"); //     \r\n        require(msg.value > 0, \"Deposit must be greater than 0.\"); //  0  \r\n        bids[msg.sender] = Bid({\r\n            blindedBid: blindBid, //    \r\n            deposit: msg.value, //  \r\n            revealed: false //    \r\n        });\r\n    }\r\n\r\n    function reveal(uint value, bytes32 secret) public atPhase(Phase.Reveal) {\r\n        Bid storage bidToCheck = bids[msg.sender]; //   \r\n        uint depositBefore = bidToCheck.deposit; //    \r\n        require(bidToCheck.blindedBid != 0, \"No bid to reveal.\"); //       \r\n        require(!bidToCheck.revealed, \"Already revealed.\"); //     \r\n\r\n        uint valueInWei = value * 1 ether; // ETH Wei  \r\n        uint difference = 0; //   \r\n        bool success = false; //   \r\n\r\n        if (bidToCheck.blindedBid == keccak256(abi.encodePacked(valueInWei, secret))) {\r\n            require(bidToCheck.deposit >= valueInWei, \"Insufficient deposit for the value.\"); //      \r\n            difference = bidToCheck.deposit - valueInWei; //   \r\n\r\n            if (valueInWei > highestBid) {\r\n                if (highestBidder != address(0)) {\r\n                    pendingReturns[highestBidder] += highestBid; //       \r\n                }\r\n                highestBidder = msg.sender; //   \r\n                highestBid = valueInWei; //    \r\n            } else {\r\n                pendingReturns[msg.sender] += valueInWei; //    \r\n            }\r\n\r\n            if (difference > 0) {\r\n                payable(msg.sender).transfer(difference); //   \r\n            }\r\n\r\n            bidToCheck.deposit = 0; //  \r\n            success = true; //   \r\n        } else {\r\n            pendingReturns[msg.sender] += bidToCheck.deposit; //         \r\n        }\r\n\r\n        bidToCheck.revealed = true; //   \r\n\r\n        emit DebugLog(\r\n            \"Reveal result\", //  \r\n            msg.sender, // \r\n            depositBefore, //   \r\n            bidToCheck.deposit, //   \r\n            valueInWei, //   (Wei )\r\n            bidToCheck.blindedBid == keccak256(abi.encodePacked(valueInWei, secret)), //   \r\n            difference, //   \r\n            success //  \r\n        );\r\n    }\r\n\r\n    function withdraw() public {\r\n        uint amount = pendingReturns[msg.sender]; //    \r\n        require(amount > 0, \"No funds to withdraw.\"); //      \r\n\r\n        pendingReturns[msg.sender] = 0; //     \r\n        payable(msg.sender).transfer(amount); //   \r\n    }\r\n\r\n    function auctionEnd() public {\r\n        require(currentPhase == Phase.Done, \"Auction not yet done.\"); //     \r\n        require(highestBidder != address(0), \"No bids revealed.\"); //      \r\n        beneficiary.transfer(highestBid); //     \r\n        emit AuctionEnded(highestBidder, highestBid); //    \r\n    }\r\n}\r\n",
  "sourcePath": "/Users/hw//8//BlindAuction-Dapp/blindauction-contract/contracts/BlindAuction.sol",
  "compiler": {
    "name": "solc",
    "version": "0.8.19+commit.7dd6d404.Emscripten.clang"
  },
  "schemaVersion": "3.4.16",
  "updatedAt": "2024-12-09T04:04:46.900Z",
  "networkType": "ethereum",
  "devdoc": {
    "kind": "dev",
    "methods": {},
    "version": 1
  },
  "userdoc": {
    "kind": "user",
    "methods": {},
    "version": 1
  }
}